:10000000130101FF23341100233081001304010187
:100010001305A000EF00C00193070500138507003A
:100020008330810003340100130101016780000067
:10003000130101FD2334110223308102233C91007E
:100040001304010393070500232EF4FC8327C4FD4A
:100050009B870700638A07008327C4FD1B8707006F
:10006000930710006316F7008327C4FD6F00000498
:100070008327C4FD9B87F7FF9B8707001385070035
:10008000EFF01FFB93070500938407008327C4FD4F
:100090009B87E7FF9B87070013850700EFF05FF959
:1000A00093070500BB87F4009B87070013850700B3
:1000B000833081020334010283348101130101037F
:0400C0006780000055
:00000001FF
