:10000000130101FE232E1100232C8100232A9100CD
:10001000130401022326A4FE0327C4FE9307100045
:1000200063C6E7008327C4FE6F0000038327C4FE76
:100030009387F7FF13850700EFF09FFC93040500FB
:100040008327C4FE9387E7FF13850700EFF05FFB6C
:1000500093070500B387F400138507008320C101CF
:100060000324810183244101130101026780000000
:10007000130101FE232E8100130401022326A4FE96
:100080008327C4FE138507000324C1011301010265
:1000900067800000130101FE232E1100232C810034
:1000A00013040102930720012326F4FE0325C4FE56
:1000B000EFF01FF59307050013850700EFF05FFBD6
:1000C0002324A4FE832784FE138507008320C10117
:0C00D0000324810113010102678000007D
:00000001FF
