:10000000130101FD2326110223248102130401039D
:10001000232EA4FC232CB4FC232AC4FC2328D4FCC8
:10002000032704FD832744FDB307F74013D7F701E7
:10003000B307F70093D7174013870700832744FDC2
:10004000B387E7002326F4FE032744FD832704FD3E
:1000500063D6E7009307F0FF6F0080088327C4FE94
:10006000939727000327C4FDB307F70083A7070072
:10007000032784FD6316F7008327C4FE6F00400644
:100080008327C4FE939727000327C4FDB307F70017
:1000900083A70700032784FD6354F7028327C4FE68
:1000A0009387F7FF93860700032644FD832584FD8D
:1000B0000325C4FDEFF0DFF4930705006F00400255
:1000C0008327C4FE93871700832604FD1386070049
:1000D000832584FD0325C4FDEFF09FF293070500FF
:1000E000138507008320C102032481021301010349
:1000F00067800000130101FE232E1100232C8100D4
:10010000130401022326A4FE2324B4FE2322C4FEEA
:10011000832744FE9387F7FF9386070013060000AA
:10012000832584FE0325C4FEEFF09FED93070500B1
:10013000138507008320C1010324810113010102FB
:1001400067800000130101FD2326810213040103CF
:10015000232EA4FC232CB4FC232604FE6F00C00C29
:10016000232404FE6F00000A832784FE9387170070
:10017000939727000327C4FDB307F70003A70700E1
:10018000832784FE939727008326C4FDB387F60058
:1001900083A707006352F706832784FE93972700FF
:1001A0000327C4FDB307F70083A707002322F4FE4B
:1001B000832784FE93871700939727000327C4FDA6
:1001C0003307F700832784FE939727008326C4FD17
:1001D000B387F6000327070023A0E700832784FEE8
:1001E00093871700939727000327C4FDB307F700F1
:1001F000032744FE23A0E700832784FE938717008C
:100200002324F4FE032784FD8327C4FEB307F740AD
:100210009387F7FF032784FEE348F7F48327C4FEA0
:10022000938717002326F4FE832784FD9387F7FF27
:100230000327C4FEE346F7F213000000138507000E
:100240000324C1021301010367800000130101FCB4
:10025000232E1102232C8102130401048328802FF2
:100260001307802F032847001307802F03258700DB
:100270001307802F8325C7001307802F032607014C
:100280001307802F832647011307802F0327870139
:100290009307802F83A7C701232614FD232804FD7D
:1002A000232AA4FC232CB4FC232EC4FC2320D4FE3C
:1002B0002322E4FE2324F4FE9307C4FC930580006C
:1002C00013850700EFF01FE89307C4FC13068000B6
:1002D0009305900013850700EFF0DFE12326A4FECD
:1002E0008327C4FE138507008320C10303248103F1
:0802F000130101046780000006
:1002F80000000000060000000800000004000000E4
:1003080003000000090000000700000005000000CD
:00000001FF
